{
  "_format": "hh3-artifact-1",
  "contractName": "ArcadeActivityRegistry",
  "sourceName": "contracts/ArcadeActivityRegistry.sol",
  "abi": [
    {
      "inputs": [
        {
          "internalType": "address",
          "name": "initialOwner",
          "type": "address"
        }
      ],
      "stateMutability": "nonpayable",
      "type": "constructor"
    },
    {
      "inputs": [
        {
          "internalType": "address",
          "name": "owner",
          "type": "address"
        }
      ],
      "name": "OwnableInvalidOwner",
      "type": "error"
    },
    {
      "inputs": [
        {
          "internalType": "address",
          "name": "account",
          "type": "address"
        }
      ],
      "name": "OwnableUnauthorizedAccount",
      "type": "error"
    },
    {
      "anonymous": false,
      "inputs": [
        {
          "indexed": true,
          "internalType": "bytes32",
          "name": "dateKeyHash",
          "type": "bytes32"
        },
        {
          "indexed": true,
          "internalType": "address",
          "name": "player",
          "type": "address"
        },
        {
          "indexed": false,
          "internalType": "string",
          "name": "profileSlug",
          "type": "string"
        },
        {
          "indexed": false,
          "internalType": "uint256",
          "name": "points",
          "type": "uint256"
        },
        {
          "indexed": false,
          "internalType": "uint256",
          "name": "streak",
          "type": "uint256"
        },
        {
          "indexed": false,
          "internalType": "uint256",
          "name": "solvedChallenges",
          "type": "uint256"
        }
      ],
      "name": "DailyActivityClaimed",
      "type": "event"
    },
    {
      "anonymous": false,
      "inputs": [
        {
          "indexed": true,
          "internalType": "address",
          "name": "previousOwner",
          "type": "address"
        },
        {
          "indexed": true,
          "internalType": "address",
          "name": "newOwner",
          "type": "address"
        }
      ],
      "name": "OwnershipTransferred",
      "type": "event"
    },
    {
      "anonymous": false,
      "inputs": [
        {
          "indexed": true,
          "internalType": "bytes32",
          "name": "dateKeyHash",
          "type": "bytes32"
        },
        {
          "indexed": false,
          "internalType": "string",
          "name": "dateKey",
          "type": "string"
        },
        {
          "indexed": true,
          "internalType": "bytes32",
          "name": "merkleRoot",
          "type": "bytes32"
        },
        {
          "indexed": false,
          "internalType": "uint256",
          "name": "participantCount",
          "type": "uint256"
        },
        {
          "indexed": false,
          "internalType": "uint256",
          "name": "challengeCount",
          "type": "uint256"
        },
        {
          "indexed": false,
          "internalType": "uint256",
          "name": "totalPoints",
          "type": "uint256"
        }
      ],
      "name": "SnapshotPublished",
      "type": "event"
    },
    {
      "inputs": [
        {
          "internalType": "string",
          "name": "dateKey",
          "type": "string"
        },
        {
          "internalType": "string",
          "name": "profileSlug",
          "type": "string"
        },
        {
          "internalType": "uint256",
          "name": "points",
          "type": "uint256"
        },
        {
          "internalType": "uint256",
          "name": "streak",
          "type": "uint256"
        },
        {
          "internalType": "uint256",
          "name": "solvedChallenges",
          "type": "uint256"
        },
        {
          "internalType": "bytes32[]",
          "name": "proof",
          "type": "bytes32[]"
        }
      ],
      "name": "claimDailyActivity",
      "outputs": [],
      "stateMutability": "nonpayable",
      "type": "function"
    },
    {
      "inputs": [
        {
          "internalType": "address",
          "name": "player",
          "type": "address"
        },
        {
          "internalType": "string",
          "name": "profileSlug",
          "type": "string"
        },
        {
          "internalType": "string",
          "name": "dateKey",
          "type": "string"
        },
        {
          "internalType": "uint256",
          "name": "points",
          "type": "uint256"
        },
        {
          "internalType": "uint256",
          "name": "streak",
          "type": "uint256"
        },
        {
          "internalType": "uint256",
          "name": "solvedChallenges",
          "type": "uint256"
        }
      ],
      "name": "getLeaf",
      "outputs": [
        {
          "internalType": "bytes32",
          "name": "",
          "type": "bytes32"
        }
      ],
      "stateMutability": "pure",
      "type": "function"
    },
    {
      "inputs": [
        {
          "internalType": "string",
          "name": "dateKey",
          "type": "string"
        }
      ],
      "name": "getSnapshot",
      "outputs": [
        {
          "components": [
            {
              "internalType": "bytes32",
              "name": "merkleRoot",
              "type": "bytes32"
            },
            {
              "internalType": "uint64",
              "name": "participantCount",
              "type": "uint64"
            },
            {
              "internalType": "uint64",
              "name": "challengeCount",
              "type": "uint64"
            },
            {
              "internalType": "uint128",
              "name": "totalPoints",
              "type": "uint128"
            },
            {
              "internalType": "uint64",
              "name": "publishedAt",
              "type": "uint64"
            },
            {
              "internalType": "bool",
              "name": "exists",
              "type": "bool"
            }
          ],
          "internalType": "struct ArcadeActivityRegistry.DailySnapshot",
          "name": "",
          "type": "tuple"
        }
      ],
      "stateMutability": "view",
      "type": "function"
    },
    {
      "inputs": [
        {
          "internalType": "bytes32",
          "name": "",
          "type": "bytes32"
        },
        {
          "internalType": "address",
          "name": "",
          "type": "address"
        }
      ],
      "name": "hasClaimedForDay",
      "outputs": [
        {
          "internalType": "bool",
          "name": "",
          "type": "bool"
        }
      ],
      "stateMutability": "view",
      "type": "function"
    },
    {
      "inputs": [],
      "name": "owner",
      "outputs": [
        {
          "internalType": "address",
          "name": "",
          "type": "address"
        }
      ],
      "stateMutability": "view",
      "type": "function"
    },
    {
      "inputs": [
        {
          "internalType": "string",
          "name": "dateKey",
          "type": "string"
        },
        {
          "internalType": "bytes32",
          "name": "merkleRoot",
          "type": "bytes32"
        },
        {
          "internalType": "uint64",
          "name": "participantCount",
          "type": "uint64"
        },
        {
          "internalType": "uint64",
          "name": "challengeCount",
          "type": "uint64"
        },
        {
          "internalType": "uint128",
          "name": "totalPoints",
          "type": "uint128"
        }
      ],
      "name": "publishDailySnapshot",
      "outputs": [],
      "stateMutability": "nonpayable",
      "type": "function"
    },
    {
      "inputs": [],
      "name": "renounceOwnership",
      "outputs": [],
      "stateMutability": "nonpayable",
      "type": "function"
    },
    {
      "inputs": [
        {
          "internalType": "address",
          "name": "newOwner",
          "type": "address"
        }
      ],
      "name": "transferOwnership",
      "outputs": [],
      "stateMutability": "nonpayable",
      "type": "function"
    }
  ],
  "bytecode": "0x608060405234801561000f575f80fd5b50604051610e48380380610e4883398101604081905261002e916100bb565b806001600160a01b03811661005c57604051631e4fbdf760e01b81525f600482015260240160405180910390fd5b6100658161006c565b50506100e8565b5f80546001600160a01b038381166001600160a01b0319831681178455604051919092169283917f8be0079c531659141344cd1fd0a4f28419497f9722a3daafe3b4186f6b6457e09190a35050565b5f602082840312156100cb575f80fd5b81516001600160a01b03811681146100e1575f80fd5b9392505050565b610d53806100f55f395ff3fe608060405234801561000f575f80fd5b5060043610610085575f3560e01c8063b962dc2811610058578063b962dc2814610110578063c4c0836014610123578063db911e0f1461019e578063f2fde38b146101b1575f80fd5b80633daaad6414610089578063669746bc146100cb578063715018a6146100ec5780638da5cb5b146100f6575b5f80fd5b6100b661009736600461086e565b600260209081525f928352604080842090915290825290205460ff1681565b60405190151581526020015b60405180910390f35b6100de6100d9366004610935565b6101c4565b6040519081526020016100c2565b6100f4610202565b005b5f546040516001600160a01b0390911681526020016100c2565b6100f461011e366004610a04565b610215565b610136610131366004610ade565b6104b9565b6040516100c291905f60c08201905082518252602083015167ffffffffffffffff80821660208501528060408601511660408501526001600160801b036060860151166060850152806080860151166080850152505060a0830151151560a083015292915050565b6100f46101ac366004610b34565b6105a8565b6100f46101bf366004610bbb565b610709565b5f8686868686866040516020016101e096959493929190610c17565b6040516020818303038152906040528051906020012090509695505050505050565b61020a610746565b6102135f610772565b565b5f6102548a8a8080601f0160208091040260200160405190810160405280939291908181526020018383808284375f920191909152506107c192505050565b5f81815260016020818152604092839020835160c081018552815481529281015467ffffffffffffffff80821693850193909352600160401b808204841695850195909552600160801b90046001600160801b031660608401526002015490811660808301529190910460ff16151560a08201819052919250906103145760405162461bcd60e51b81526020600482015260126024820152711cdb985c1cda1bdd0b5b9bdd0b599bdd5b9960721b60448201526064015b60405180910390fd5b5f82815260026020908152604080832033845290915290205460ff161561036f5760405162461bcd60e51b815260206004820152600f60248201526e185b1c9958591e4b58db185a5b5959608a1b604482015260640161030b565b5f6103f8338b8b8080601f0160208091040260200160405190810160405280939291908181526020018383808284375f81840152601f19601f820116905080830192505050505050508e8e8080601f0160208091040260200160405190810160405280939291908181526020018383808284375f920191909152508e92508d91508c90506101c4565b90506104098585845f0151846107cc565b6104455760405162461bcd60e51b815260206004820152600d60248201526c34b73b30b634b216b83937b7b360991b604482015260640161030b565b5f83815260026020908152604080832033808552925291829020805460ff19166001179055905184907f90c6f26e77ce95706dca46b9840fe6fb2d36dbc8f5ee8551bd1e0ab637ff7dba906104a3908e908e908e908e908e90610c93565b60405180910390a3505050505050505050505050565b6040805160c0810182525f80825260208201819052918101829052606081018290526080810182905260a081019190915260015f61052b85858080601f0160208091040260200160405190810160405280939291908181526020018383808284375f920191909152506107c192505050565b815260208082019290925260409081015f20815160c08101835281548152600182015467ffffffffffffffff80821695830195909552600160401b808204861694830194909452600160801b90046001600160801b031660608201526002909101549283166080820152910460ff16151560a08201529392505050565b6105b0610746565b5f6105ef87878080601f0160208091040260200160405190810160405280939291908181526020018383808284375f920191909152506107c192505050565b6040805160c08101825287815267ffffffffffffffff80881660208084019182528883168486019081526001600160801b03808a166060870190815242861660808801908152600160a089018181525f8c815296829052958a90209851895595519588018054945192518416600160801b02928816600160401b9081026fffffffffffffffffffffffffffffffff1990961697891697909717949094179092161790915551600290940180549151151590920268ffffffffffffffffff19909116939092169290921717905551909150859082907f19ead4c0684839de513fe363acffa26b3003949fbeb38dd74411a8dc6e20b72f906106f8908b908b908a908a908a90610cc3565b60405180910390a350505050505050565b610711610746565b6001600160a01b03811661073a57604051631e4fbdf760e01b81525f600482015260240161030b565b61074381610772565b50565b5f546001600160a01b031633146102135760405163118cdaa760e01b815233600482015260240161030b565b5f80546001600160a01b038381166001600160a01b0319831681178455604051919092169283917f8be0079c531659141344cd1fd0a4f28419497f9722a3daafe3b4186f6b6457e09190a35050565b805160209091012090565b5f826107d98686856107e3565b1495945050505050565b5f81815b8481101561081b576108118287878481811061080557610805610d09565b90506020020135610824565b91506001016107e7565b50949350505050565b5f81831061083e575f82815260208490526040902061084c565b5f8381526020839052604090205b9392505050565b80356001600160a01b0381168114610869575f80fd5b919050565b5f806040838503121561087f575f80fd5b8235915061088f60208401610853565b90509250929050565b634e487b7160e01b5f52604160045260245ffd5b5f82601f8301126108bb575f80fd5b813567ffffffffffffffff808211156108d6576108d6610898565b604051601f8301601f19908116603f011681019082821181831017156108fe576108fe610898565b81604052838152866020858801011115610916575f80fd5b836020870160208301375f602085830101528094505050505092915050565b5f805f805f8060c0878903121561094a575f80fd5b61095387610853565b9550602087013567ffffffffffffffff8082111561096f575f80fd5b61097b8a838b016108ac565b96506040890135915080821115610990575f80fd5b5061099d89828a016108ac565b945050606087013592506080870135915060a087013590509295509295509295565b5f8083601f8401126109cf575f80fd5b50813567ffffffffffffffff8111156109e6575f80fd5b6020830191508360208285010111156109fd575f80fd5b9250929050565b5f805f805f805f805f60c08a8c031215610a1c575f80fd5b893567ffffffffffffffff80821115610a33575f80fd5b610a3f8d838e016109bf565b909b50995060208c0135915080821115610a57575f80fd5b610a638d838e016109bf565b909950975060408c0135965060608c0135955060808c0135945060a08c0135915080821115610a90575f80fd5b818c0191508c601f830112610aa3575f80fd5b813581811115610ab1575f80fd5b8d60208260051b8501011115610ac5575f80fd5b6020830194508093505050509295985092959850929598565b5f8060208385031215610aef575f80fd5b823567ffffffffffffffff811115610b05575f80fd5b610b11858286016109bf565b90969095509350505050565b803567ffffffffffffffff81168114610869575f80fd5b5f805f805f8060a08789031215610b49575f80fd5b863567ffffffffffffffff811115610b5f575f80fd5b610b6b89828a016109bf565b90975095505060208701359350610b8460408801610b1d565b9250610b9260608801610b1d565b915060808701356001600160801b0381168114610bad575f80fd5b809150509295509295509295565b5f60208284031215610bcb575f80fd5b61084c82610853565b5f81518084525f5b81811015610bf857602081850181015186830182015201610bdc565b505f602082860101526020601f19601f83011685010191505092915050565b6001600160a01b038716815260c0602082018190525f90610c3a90830188610bd4565b8281036040840152610c4c8188610bd4565b60608401969096525050608081019290925260a0909101529392505050565b81835281816020850137505f828201602090810191909152601f909101601f19169091010190565b608081525f610ca6608083018789610c6b565b602083019590955250604081019290925260609091015292915050565b608081525f610cd6608083018789610c6b565b67ffffffffffffffff95861660208401529390941660408201526001600160801b03919091166060909101529392505050565b634e487b7160e01b5f52603260045260245ffdfea264697066735822122044f2c5359b4c685a53f7d32a4137766e9f4bf003c7963abbd5adb5787cc72dec64736f6c63430008180033",
  "linkReferences": {},
  "deployedLinkReferences": {},
  "immutableReferences": {},
  "inputSourceName": "project/contracts/ArcadeActivityRegistry.sol",
  "buildInfoId": "solc-0_8_24-8eab7a999796c04ce692820467c12c43083e8df8"
}